:040000006F10002459
:1000040000000000000000006F0080086F00202541
:1000140000000000000000000000000000000000DC
:1000240000000000000000000000000000000000CC
:100034006F004006000000006F00E00500000000B3
:100044006F0080056F0060056F0040056F0020059C
:100054006F0000056F00E0046F00C00400000000A2
:100064006F0060046F0040046F0020046F00000400
:100074006F00A0266F00C003000000006F00600343
:100084006F0040036F0020036F0080266F00E002C2
:1000940001A001A001A001A001A001A001A001A054
:1000A40001A001A001A001A001A001A001A001A044
:1000B40001A001A001A001A001A001A0B717004068
:1000C400130770052380E704130780FA2380E704ED
:1000D4000F1000002396A70223800704371700405F
:1000E40083472705898BEDDF8357070537170040C2
:1000F40083472705898BEDFF371700408347270582
:10010400898BEDDF035507058280B71700409306FE
:1001140070052380D704130780FA2380E7040F10A7
:10012400000003C6B7041376F60DA385C704238025
:100134000704137605023DCA03C6A700118A1DE20F
:100144002380D7042380E7040F10000003C7A7000F
:10015400136747002385E7009307004B0100010064
:10016400FD17EDFFB7170040930670052380D704F1
:10017400130780FA2380E7040F1000007D8923947D
:10018400A70001000100010001002380070423806F
:10019400D7042380E7040F1000003727004093069C
:1001A4001005A303D78023800704828013760504F7
:1001B4006DDE03C6A700418A1DE22380D704238095
:1001C400E7040F10000003C7A70013670701238586
:1001D400E7009307007D01000100FD17EDFFB7174D
:1001E4000040930670052380D704130780FA238008
:1001F400E7040F1000007D89136505042394A7000C
:100204000100010001000100238007042380D704BA
:100214002380E7040F1000003727004093063005C1
:1002240049B74111814601468145114506C6FD2A5B
:10023400B7170040130770052380E704130780FAFB
:100244002380E7040F10000003C767041367170037
:100254002383E70423800704B2404101828081465E
:10026400014681451145D922B71700409306700510
:100274002380D704130780FA2380E7040F100000BB
:100284007D562396C7022380D7042380E7040F10EA
:10029400000003C76704136717002383E704238060
:1002A400070401A0BD473305F50201007D1575FD66
:1002B4008280411122C426C206C6AA84014463175F
:1002C4009400B24022449244410182800504130503
:1002D400803E4204C13F4180DDB7B7170040130799
:1002E40000032388E702854723A0F18873002030A8
:1002F40037470040834747C09946BD8B638BD7027D
:1003040031476385E70011476397E702B74500402B
:1003140003C6A5C013850129938585C097F0FFDF27
:10032400E78080A6420541810DE58547238FF18A48
:1003340019A0834757C073002030834687C08507C0
:1003440093F7F70F238ED1888346A7C0E3E7D7FE40
:10035400E9BF814737470040C5BF411106C69D210B
:1003640097F0FFDFE780E04497F0FFDFE78080430A
:10037400FDB72303048095472303F4802302A4805C
:10038400828083076480E3CE07FE23030480828097
:1003940083076480E3CE07FE03454480828083079D
:1003A4006480E3CE07FE2302A4808280411126C428
:1003B4004AC24EC006C61377F50BAD47AA892E89EB
:1003C40095446306F70019456D37653F8D444E85A6
:1003D4004D37FD59FD1463983401B240A2441249CB
:1003E400824941018280135509011375F50F453F78
:1003F4002209CDB7011126CC06CEB7040800513727
:100404001545853F713769372AC6A53F324593772D
:10041400150089EB136515001375F50FF240E244DE
:1004240005618280FD14E9FC0145CDBF397126DCEC
:100434004ADA4ED852D656D45AD25ED062CEB7E7F4
:1004440000E006DE66CC6ACA414783AB070422C6D5
:10045400B8C37D5703AB070083AA470023A0E7185E
:1004640023A2E718B7170040130770052380E70499
:10047400130780FA2380E70483C74704130C75FF2E
:10048400B684E207137CFC0F85462A8A2E89B2893A
:1004940037240040E187015763FA86016308D500D9
:1004A4008946130700026313D5000157D98F93F7C8
:1004B400F70F371D00402302FD0411472303E48096
:1004C4001305F00F7D35894C6D3D63EB8C11B70737
:1004D40007003E99378707007955637EE902B30721
:1004E4009900636AF702A947631CFA0689E4814408
:1004F400493D26850DA0CA8509454D3D850903C59D
:10050400F9FFFD140509613D81C49377F90FFDF7E7
:10051400D53569FD7D55B717004013077005238055
:10052400E704130780FA2380E70403C74704418BD9
:100534002382E704B7E700E023A07705F25023A065
:10054400671123A25711E25432445259C259325A04
:10055400A25A125B825B724CE24C524D2161828042
:10056400A5476314FA0685699307F00FB3869700CD
:10057400B374F900B69493C7F7FFFD8C33F92701E0
:10058400416A056C9387F9FFB3F7270199E363FC8C
:10059400340193D94900C147E3E637FF89BF856732
:1005A400C169FD17E1B71305800D6388490113057F
:1005B40000026384890113051008CA85C53B1D3DEB
:1005C40031D94E99B3843441D9B7CA852D45F93B05
:1005D400CE94E38E99F08509653BA38FA9FED5BF20
:1005E4009307FAFF93F7F70F63ECFC0803475D04E6
:1005F400B70708001377070219E3B787070079558F
:10060400E37BF9F033079900E3E7E7F089476310E8
:10061400FA048980554AE38C04ECCA850945793388
:10062400910903A7C9FF91472320E480030764804D
:10063400E34E07FE23034481FD17EDFBFD1411096E
:1006440081C49377F90FE9FF753371F5E1B58547F7
:10065400E307FAF4CA852D45913B1389F4FFE38837
:1006640004E83D339377390091EB8326048003A794
:10067400090093874900E39DE6E6BE89CA84F1BF79
:10068400B5476316FA001305900BE5318DB5B147F4
:100694001305B00AE30BFAFE9947631EFA02CA85F2
:1006A4002D45293381440D4C214ADD316396840163
:1006B4008327048023A0F9008504E39844FF83275B
:1006C400048013172901635507002392F90005B527
:1006D40023A2F90029BD9D476319FA028145130538
:1006E400B004E931BD4423A0090023A209007D59C7
:1006F400453193F77400CE9703C70700FD14398D75
:100704002380A700E39624FFDDB3A1476312FA0414
:10071400D5318144630D09008D479304C0036308F8
:10072400F9009304000563049901930440041375CC
:10073400C507E30E95DA19452D39A131054515395B
:100744002685B1390945A1397531E31205DAD9B3E2
:1007540091476319FA001305600621391D31130509
:10076400900925B7E3050AD8F15459B309CDB71751
:100774000040130770052380E704130780FA2380E1
:10078400E7042396A702828019C1814799E98280F0
:100794003387F500834607003307F50085072300F8
:1007A400D700E397C7FEE5B719C1FD5781E98280F9
:1007B400910503A7C5FF1105232EE5FE7D16E31958
:1007C400F6FEF5B7797122D4173400001304447C83
:1007D4001C4006D626D24AD04ECE91C78297973770
:1007E400000023A7077A5C4089CB03D5C18CBD3FA9
:1007F4005C40829703D5E18C953F1C4063990718B0
:100804009747000083C7D78A858B95C79747000011
:10081400A380078A174700000347B789914763FC01
:10082400E700792B9747000083C7B788F9178A0731
:10083400A2979C4382979747000083C7278C918B8C
:1008440089C7971001E0E780A04C1C4491C38297AC
:100854009387818C984317360000034636713E898E
:1008640097340000938484709737000083C707701F
:1008740093961700BA9683D60600638006109737BE
:10088400000083C7A76E63F2C70886073E978355A7
:1008940007002310070003D5C18C2EC6239A018CB0
:1008A400F1359387018E9C43173500000345056C91
:1008B40013172500BA979C43B2458297AA8903D59A
:1008C400E18C6D359737000083C7476A139717008B
:1008D4008327090003D5418D1345F5FFBA9703D744
:1008E400070033753501598D2390A70083C7040091
:1008F400850793F7F70F173700002309F7661737B3
:1009040000000347B76663E6E70097370000238FCC
:1009140007641C40ADEF9387818D98433E8425CBBB
:100924009737000083C7377991CB9737000083C787
:10093400577889E7971001E0E78040EE1C408297E2
:100944002A8431C59C48AA97173700002328F762E8
:100954009387C18D9C4385CF03D5C18C013D2285EE
:10096400970000E0E780C0972254B2509254025995
:10097400F24903D5E18C4561D5BB850793F7F70FA1
:10098400973600002384F65EE3E0C7EECDBDB25097
:10099400225492540259F249456182809167B7C644
:1009A40000409387373023A6F6200F1000009737B6
:1009B40000009387A75B884F9387019D9C43316711
:1009C40013073730F053B7071000FD17918F998341
:1009D4003A0523A6E6205D8D82804111B7170040B9
:1009E400985F3AC6945F3247E39CE6FE3245410184
:1009F4008280411106C6D5379736000083C68654D7
:100A0400858AB1C6930730333307F502B337F5024D
:100A14003983CA07D98F1737000013072755584B56
:100A240001456303F7023385E740636BF7003765DD
:100A34003D0889C637856F0813050590198D3E95C5
:100A440017370000232EF752B24041018280E54758
:100A54003307F502B337F5022583DE0765BF0327A5
:100A6400C50F8346B50097370000938727649C4FD2
:100A740058439386160295829043FD1693F6F60F1B
:100A840010C3D04350C3904710C7D04750C7904BB2
:100A940010CBD04B50CB904F10CFD04F50CF91C6EE
:100AA4001307070293870702C1BF82808347E501CA
:100AB40093F7E70FF1EF2A870345F50171E9034640
:100AC40007018346870009CA8345A70297370000B8
:100AD40083C7574763E7F50093F70601C5CF8147FE
:100AE40009CA8347871503467715C18AA207D18FA0
:100AF40081CA8346B7150347C7152207558FBA978E
:100B0400D1CB173700001307E7653847411122C4DA
:100B140006C67D548326070863F38600368418438B
:100B240075FB173700000347E74193168701E186F9
:100B340063D906029387C7139583173700000347C9
:100B44000741BA9763D006041D8C9387418E9C435A
:100B540082973335A400B240224413451500410165
:100B64008280058B9387C71209CB8A079387F70383
:100B74001305D007B3D7A702C9B78607FD07130526
:100B8400D003CDBFE372F4FC3705C0A82A946DBF2F
:100B9400014582808280411122C41384019C184043
:100BA4004AC006C61C5F26C21389C19B9983858BE4
:100BB400C1C31C5F973400009384444F93F7F7F943
:100BC4001CDF9737000083C7674E93F707048DC374
:100BD4009387418E9C4382979737000023A0A74EAA
:100BE40083C7040093F7F70B173700002300F74C73
:100BF400854717370000A30DF74A83C7440093F7CE
:100C0400070481EF9387019D9C43D844B8D393078D
:100C140000FC17370000230DF7488387640063D96D
:100C24000700832709009C43173700002303F74874
:100C340018401C5F8583858BC9CBF5571CDF0100E9
:100C44000100010001000100010001000100010098
:100C54000100010001000100010001000100010088
:100C64000100010001000100010001000100010078
:100C74000100010001000100010001000100010068
:100C84000100010001000100010001000100010058
:100C94000100010001000100010001000100010048
:100CA4000100010001000100010001000100010038
:100CB400010001000100010001000100010093870F
:100CC400019D9C4313075004B8CB18401C5F9183CB
:100CD400858B89CFBD571CDF9387019D9C4323A837
:100CE40007048547173700002304F73C83270900CE
:100CF400D8430583058B19C7D843759BD8C3D843FC
:100D0400799BD8C3B2402244924402494101828073
:100D1400397106DE16DC1ADA1ED82AD62ED432D25F
:100D240036D03ACE3ECC42CA46C872C676C47AC2DF
:100D34007EC09535F250E2525253C2533255A255F9
:100D4400125682567247E2475248C248324EA24E69
:100D5400124F824F2161730020309387019D944389
:100D64001737000013078734BC5289CF8347270005
:100D7400858B89EB83473700858BFDD79737000038
:100D840023880732828037C700401306C0039306C6
:100D94002003973500009385653183278720C1831D
:100DA40093F7F7036369F60083278720C18393F7DA
:100DB400F70363E6F60083C74500858BF9DF82807D
:100DC4009387019D9443173700001307272EBC52C5
:100DD40089CB83470700858B91CB97370000238904
:100DE400072C97370000A385072C828083471700C0
:100DF400858BF1DFDDB79387019D904337C70040B2
:100E0400C145E54683278720C18393F7F70363FB36
:100E1400F50083278720C18393F7F70363E4F60083
:100E24003C52EDF382801387019C1843AA87185F14
:100E34001583058B25EF0345150015051377C51F8D
:100E440019C6B386E70083C626002300D60095C5DD
:100E54009736000083C6E62593F606040945A1CA21
:100E6400B386E70083C63600054693F5F60663901D
:100E7400C504E206E18663CC06023385E7008347B6
:100E8400150003470500A20793F70770D98F13973E
:100E9400070141839376074099C61367078023941B
:100EA400E19C014582802394F19CE5BF0545828045
:100EB4009386019D8C423685973600009386061FE3
:100EC400984593170701C183137817203E8663045E
:100ED40008041377072079C303C726001367170094
:100EE400173800002305E81C13070019B8D11307AD
:100EF40000F897350000238DE51A1387019C0C43F5
:100F040037080010D855719B13672700D8D598412E
:100F14003367070198C11377261005C313760610AB
:100F240059CE03C706001367170017360000230FB6
:100F3400E61617370000231F071683C6460093C71B
:100F4400F7FFC207E206E186C183184163D10602B6
:100F54009396170163DE060630538D4663E9C60097
:100F64008546173600002305D6143453FDFE973604
:100F740000009386E6FB8386460163DD06009396B4
:100F84000701C18663DC06047053894663E4C60026
:100F94007453FDFE1447F58F1CC7828003C71600E7
:100FA4001367170097350000A382E5101737000078
:100FB4002300071017370000231E070EA9BF03C71D
:100FC40036001367170017360000A302E60E95B724
:100FD400854617360000230DD60C51BF544713968F
:100FE400060163510602B7061000FD1674D3973646
:100FF40000009386A6F7944E850617360000232337
:10100400D6F849BFA166D58F71B7397106DE16DCF3
:101014001ADA1ED82AD62ED432D236D03ACE3ECCC4
:1010240042CA46C872C676C47AC27EC05135F250EE
:10103400E2525253C2533255A25512568256724747
:10104400E2475248C248324EA24E124F824F2161AB
:101054007300203017370000130707078346B701D2
:101064009737000083C79709B69793F7F70FFD46A4
:1010740063EAF6044C4B97360000A387F6049737CF
:10108400000083C7770405473317F700973600003D
:10109400A386F6066D8F1DEF9736000083C65606AD
:1010A400B3F6D70213050002814733D6F500058A4B
:1010B40013F8F70F09CE6399E60097370000A3856C
:1010C4000701828081177DB705071377F70F85071E
:1010D400E39DA7FC82809387C19D9843B757020084
:1010E4009387279F832607091396560063580600A3
:1010F400832607091396660063440600FD17FDF373
:10110400828051C9AA870145C9C98D07C207C18315
:10111400F19BC207C18313074003636BF702138774
:1011240001A70843138781A614436396A6021737C1
:1011340000001307E7DF185B014525C34111C2070F
:1011440006C60545DD8D0297B24001454101828006
:101154001387C1A6F9B70357650005EF0357450088
:101164006369F702B306F74021466370D602104163
:10117400938687001D8FAA96611790C22392E6007A
:101184002393060014C12312F5002313B50021058F
:101194008280084159BF01458280828001CD9387B6
:1011A40001A703A80700938781A68C430147C28740
:1011B40063E3B70082809443636FF50663EDA6068C
:1011C40013868700E368C5FE03D56700216605061C
:1011D4006317C50003C6019805062380C1982393AD
:1011E4000700638407031386C1A61042630FF60049
:1011F4000356670019EA83D7470014C38356470090
:10120400B697A1072312F700BA879843E304B7FA05
:101214009386C1A69442E30FD7F883566700D9FAA0
:1012240083D64700035647001843A106B29623927B
:0C123400D70098C382803E87B6879DBF1C
:10124000974100209381813617710020130181DBC3
:1012500013054000972500209385C55A17360020B6
:101260001306067E63FAC5008322050023A05500FD
:1012700011059105E3EAC5FE17E501001305858C0C
:10128000973500209385C57B1386018763FAC500D7
:101290008322050023A0550011059105E3EAC5FE50
:1012A00013850187976500209385C5766377B50020
:1012B000232005001105E36DB5FE9302800873A09D
:1012C0000230972200209382E25393E2120073903F
:1012D000523037170040930770052300F704930737
:1012E00080FA2300F7040F1000003C47B70600FA0D
:1012F000E116F58FB70600069506D58F3CC79722F5
:1013000000009382E21C73901234730020303D433E
:101310002A876373C3029377F700BDEFADE5937639
:1013200006FF3D8ABA960CC34CC30CC74CC7410795
:10133000E36BD7FE11E28280B306C3408A069702B0
:10134000000096966780A6002307B700A306B700A3
:101350002306B700A305B7002305B700A304B70011
:101360002304B700A303B7002303B700A302B70009
:101370002302B700A301B7002301B700A300B70001
:101380002300B700828093F5F50F93968500D58DE5
:1013900093960501D58D61B79396270097020000BB
:1013A00096968682E78086FA9680C1171D8F3E96B4
:1013B000E374C3F8A5B7B717004003C777051377E1
:1013C000E70FA38BE704130700F8A38DE7043D475D
:1013D000238CE70413075003A38CE7048280B7171C
:1013E000004003D587005D715ED64205418186C607
:1013F000A2C4A6C2CAC04EDE52DC56DA5AD862D4A3
:1014000066D26AD06ECE9377050C13070008814B25
:10141000638EE718130700046392E716B7240D8F55
:101420007D8993840480B3D4A4029167938707E8ED
:10143000BE94A167938707D0B3D4F402EFA0F16AFA
:1014400097D70100938707C89043D443EFA0B11EFC
:10145000EFB0212C2A8B939C040103D9018793DCE4
:101460000C0163150900056913090980B7170040CD
:10147000130770052380E704130780FA2380E7042D
:101480000F1000000547371A0040939D0401096CB6
:1014900085662389E704D14A814E8145130D0A04EC
:1014A00013087005130680FA894893DD0D01130CAB
:1014B0000C712943FD1623000D012300CD000F10F0
:1014C000000023162A0323000D0083472A05898B79
:1014D000EDDF83570A0583472A05898BEDFF834794
:1014E0002A05898BEDDF83570A0523982187C207D8
:1014F000C183338597419319050193D909416386C7
:1015000009163387B9026350070E850EC20E93DEAB
:101510000E0163EAD80D63DB050A3305B04093156D
:101520000501C185C204C18063D9350BB7170040DE
:10153000130770052380E704130780FA2380E7046C
:101540000F1000000965130505713385A502239668
:101550007703238007043345950242054181B64055
:10156000264496440649F259625AD25A425BB25B0B
:10157000225C925C025DF24D61618280B1E3B774DE
:1015800089097D8993840480B3C4A40291679387F9
:1015900007E8BE94A167938707D0B3C4F402EFA015
:1015A000D15497D70100938767B279BD97D70100CF
:1015B0009387C7B0856403AB07009384843861BD0B
:1015C000130B0000954441BD3A89F5B5B387FC4043
:1015D0009399070193D90941B1B7096513050571BD
:1015E0003385A9028DBF3385B74163E4FC003385A1
:1015F000FD40330585033344B5036345830013156C
:101600000401A9BF4E8536C642C432C2EFB0010400
:10161000DA85EFA09154EFA0517D931E050193DE72
:101620000E41B307D941C207C183056E3E871246FA
:10163000224889482943B24663E3C70136874207F7
:101640004183631A2701130719006344300113070C
:10165000F9FF42074183FD1A93FAFA0FCA8BCE8530
:10166000E3940AF62398E18659BF0145CDBDB7172B
:10167000004003D587005D7186C642054181A2C442
:10168000A6C2CAC04EDE52DC56DA5AD85ED662D442
:1016900066D26AD06ECE02C69377050C1307000897
:1016A000638FE714130700046393E712B7240D8FC9
:1016B0007D8993840480B3D4A4029167938707E85B
:1016C000BE94A167938707D0B3D4F402EFA0F14191
:1016D00097D701009387079F9043D443EFA0A1754C
:1016E000EFB021032A89939A040103DB218793DA5F
:1016F0000A0163150B00056B130B0B80B717004035
:10170000130770052380E704130780FA2380E7049A
:101710000F1000000547939B04018969056A23891E
:10172000E704D14D014D814C93DB0B019389097185
:101730007D1A5A8597200020E7808018330C554188
:10174000420C135C0C412399618763030C16B307A9
:101750009C0363D3070E050D420D135D0D018947F0
:1017600063ECA70D63DD0C0A33059041931C050162
:1017700093DC0C41C204C18063DA8C0BB7170040C4
:10178000130770052380E704130780FA2380E7041A
:101790000F1000000965130505713385AC0232474F
:1017A0002396E702238007043345950242054181D1
:1017B000B640264496440649F259625AD25A425BD0
:1017C000B25B225C925C025DF24D61618280B1E3AA
:1017D000B77489097D8993840480B3C4A402916796
:1017E000938707E8BE94A167938707D0B3C4F40238
:1017F000EFA0B12F97D701009387478DF1BD97D701
:1018000001009387A78B856403A90700938484381C
:10181000D9BD130900009544F9B53E8B19BF338536
:10182000AA40131C0501135C0C41A9B709651305F7
:1018300005713305AC028DBF63FEAA003305754107
:1018400033053503A9473344750363C8870013156F
:101850000401B1BF3385AB40E5B76285EFA0115FEE
:10186000CA85EFA0912FEFA05158131D0501135DFC
:101870000D413307AB41420741838565BA876363F6
:10188000B700D287C207C183639A670193071B0021
:10189000634480019307FBFFC207C183FD1D93FDD5
:1018A000FD0F5AC6E28CE39A0DF62399F18645B7EF
:1018B0000145FDBD41112A83014E930E407E130F59
:1018C0000019930F400663ED6E0A93080019130385
:1018D0004006B3781503854E0D4FA14F3373650253
:1018E0000D891335150063E7BE0C1308F6FF794622
:1018F00072984208135808013307C70213D617001D
:10190000BE0732976146B3F6C60213068070B386EF
:10191000C6023697A166F58F42075D8FB717004064
:1019200083C6F70293F60608A307D1000346F10029
:1019300083C6F70293F60608E394C6FE8346F100D9
:1019400093F6F60FF1DE930670052380D704930615
:1019500080FA2380D7040F10000023AA070383C650
:10196000170393E60608A388D702D8DB03C717033B
:1019700013670704A388E7022380070441018280DC
:101980007D133368E3039308E016630E08003368A1
:10199000F3039308D016630808009378330093B8D4
:1019A00018009388D81633081E01131E0801135E11
:1019B0000E0111BF6393E5030548638608000148E3
:1019C000630303002A8871087298FD15131E08012D
:1019D000C205135E0E01C18139B713F8150063F417
:1019E000BF007908D5B713381800E5BF914763EEFB
:1019F000B70217C701001307E76D8A05BA959C4126
:101A0000BA978287B717004003A7470B1345F5FF26
:101A1000698F23AAE70A03A7070B698F23A8E70AA0
:101A200003A7070A798D23A0A70A8280B717004071
:101A300083A6470B1347F5FFF98E23AAD70A83A67F
:101A4000070B558D23A8A70A83A6070A758F23A025
:101A5000E70A8280B717004003A7470B498F23AAE4
:101A6000E70A03A7070B1345F5FF45BFB71700406B
:101A700083A6470B1347F5FF758F23AAE70A03A731
:101A8000070A598D4DB7B717004003A7470B498F79
:101A9000EDB7914763EEB70217C701001307C7649C
:101AA0008A05BA959C41BA978287B717004003A769
:101AB000470D1345F5FF698F23AAE70C03A7070D10
:101AC000698F23A8E70C03A7070C798D23A0A70C27
:101AD0008280B717004083A6470D1347F5FFF98EA4
:101AE00023AAD70C83A6070D558D23A8A70C83A680
:101AF000070C758F23A0E70C8280B717004003A75F
:101B0000470D498F23AAE70C03A7070D1345F5FFDF
:101B100045BFB717004083A6470D1347F5FF758FE4
:101B200023AAE70C03A7070C598D4DB7B717004040
:101B300003A7470D498FEDB7B74700401147A38171
:101B4000E70009472380E700130700062380E7002A
:101B500003C7170013670701A380E70003C7170037
:101B60001377E70FA380E70082808947374700405B
:101B7000631DF5008347170093E70704A300F700F0
:101B8000B7470040A381A70082808347170093F7DF
:101B9000F70BEDB7B747004003C707001377F70E01
:101BA0002380E700131705012E9541834205239CEE
:101BB000E7004181239EA7002396B7002547238392
:101BC000E70003C7170013671700A380E70003C7E8
:101BD0006700058B6DDF03C717001377E70FA3803E
:101BE000E7008280B717004003D587004205418196
:101BF0009377050491EB9377F5013755E8011305C9
:101C000005803345F50282809377050C13070004A5
:101C10006397E7009377F50137459C1CCDB72165A5
:101C2000130505D0828037E700E01C435443A183AD
:101C3000E206D58F1CC1FD572320F7182322F71881
:101C40000F100000828013178500B7E700E023A083
:101C5000E710618123A2A7108280B7F700E0C84394
:101C60009C478280814737370040A14663C4C70044
:101C7000328582800345B740E38EA6FE3385F500AA
:101C80000345050085072304A740CDB797370020FB
:101C90009387C7119C43176700201307A7D73E956A
:101CA000636EE500176700201307C7156368A70078
:101CB00017370020232CA70E3E858280FD57EDBFED
:101CC000411122C406C62A84313F2947B307E502E1
:101CD000B2408D83B3D7870222449507B3D7E7027A
:101CE00037370040C207C1832316F7404101828085
:101CF000716541111305052006C6D937B737004075
:101D0000130770F82381E7400D47A381E7401307CD
:101D10000004A380E74005472387E740B240410124
:101D20008280B73700402147B736004091E182807A
:101D300003C6B740E30CC7FE05050346F5FFFD15D6
:101D4000C2052384C640C181D5B7411122C406C64D
:101D50002A84493D2947B307E502B2408D83B3D7B2
:101D6000870222449507B3D7E70237470040C207EE
:101D7000C1832316F7C041018280716541111305AB
:101D8000052006C6D937B7470040130770F82381EE
:101D9000E7C00D47A381E7C013070004A380E7C095
:101DA00005472387E7C0B24041018280B747004022
:101DB00003C717C019C9D98DA380B7C003C707C00F
:101DC000136787002380E7C0828093C5F5FFF98DF4
:101DD000A380B7C08280CC41411106C6328503C6BC
:101DE000150083C5050022064D8E42068D6541868D
:101DF000138875A2630C060F6348C804138845A2B4
:101E00006306060B634AC800938535A26309B606CC
:101E100023900600294679A0138855A26308060B73
:101E2000938565A2E316B6FEC1451D4663ECE50643
:101E30004546198E63F3C7003E862390C60097C5BA
:101E400001009385A52C89A8138895A26300060F2D
:101E5000634E060B1388A5A2630A060F938505A59A
:101E6000E318B6FA99451D4663EEE502198E63F351
:101E7000C7003E862390C6009385C18031A89D454A
:101E80001D4663E1E5022146198E63F3C7003E86D5
:101E90002390C60093854187BA9597200020E7805C
:101EA000E00E0146B240328541018280AD451D46BB
:101EB000E3EAE5FE3146198E63F3C7003E862390C0
:101EC000C60097C5010093852528F9B7B1451D4681
:101ED000E3EAE5FC3546198E63F3C7003E8623909E
:101EE000C60097C50100938525277DB7C1451D46CE
:101EF000E3EAE5FA4546198E63F3C7003E86239070
:101F0000C60097C501009385A52179B7C1451D4637
:101F1000E3EAE5F84546198E63F3C7003E86239051
:101F2000C60097C5010093852524BDB7C1451D4650
:101F3000E3EAE5F64546198E63F3C7003E86239033
:101F4000C60097C501009385E51EB9B7B5451D4686
:101F5000E3EAE5F43946198E63F3C7003E86239021
:101F6000C60097C50100938565193DB797360020D7
:101F7000938606C04146CD4517350020130545AC74
:101F80006F70D062411106C6EFF06FC5BD4763F4B4
:101F9000A700EFF0CFC4EFF08FEDBD4763F4A700CB
:101FA000EFF0EFECB24083D5218703D501874101E3
:101FB0006F10B06A411193962500AA852D4506C67B
:101FC00097200020E780C0C6B240014541018280D1
:101FD000411126C29394250022C44AC02A84328922
:101FE000A686AA850146254506C697200020E780DB
:101FF00020C4A6864A86A285294597200020E7802E
:1020000020C3B240224492440249014541018280EA
:10201000011122CC06CE3714004026CA4AC84EC64B
:1020200052C483447405034AB405834984050349B3
:102030009405EFF04FB88347A40593F4F40F137A97
:10204000FA0F93E71700230DF40493F9F90F1379AE
:10205000F90FB717004003C7A705058B6DFF03D520
:10206000C705A38D4705238C3705A38C2705A38BB4
:102070009704F2406244D2444249B249224A05617F
:10208000828041119397050122C406C6C1872E8420
:1020900063DD0700EF10206319C1EF10205C21659C
:1020A000218DB24022444101828093F7150013C56F
:1020B0001500E5FB9397250163D00702EF30211847
:1020C000D13537F60200130606E0896503C5C187DE
:1020D000EF1090300965E9B7939715010145E3D2F8
:1020E00007FC17C501001305E50DEFA0911D1306B0
:1020F0000064916503C5C187EF10102E11654DB7BF
:102100001D71494697C501009385450717C5010014
:102110001305055986CEEF10F01301E917C501002C
:1021200013050507EFA0F11901A037F700E0F957F3
:102130005CC7FD571CCB8566B7E700E023A0D7102E
:102140001306701010C3B8434146B0C323A0D7187C
:10215000B8C30F1000001306C00381454808EF10F4
:102160005009974700209387A7913ECA89679387B4
:102170000780231CF100ED47A301F1029307A01093
:102180002312F102D1472303F102A167938707E0ED
:102190003ECE97070000938727E2BEC49707000052
:1021A000938747E3BEC685472304F102B54723085A
:1021B000F10297070000938787AA3EDAB7F5070078
:1021C00097070000938707E53EDE814697070000EA
:1021D000938787DB7000E1051945BEC0972000207A
:1021E000E78000A558088147994670003E9603464F
:1021F000060085070507A30AC700E398D7FED24764
:1022000091C70357810185676373F70001A04808F0
:10221000EF10705AAA8501C917C50100130585F88A
:10222000EFA0817801A0F640256182804111170559
:102230000000130545E506C622C4EF105054138470
:10224000C1872300A4002928034504002244B2408A
:1022500037F60200130606E0896541016F10D017BA
:10226000411122C406C637140040930670052300AE
:10227000D404130780FA2300E4040F1000008347FE
:10228000F40293F7A70FA307F4022300D40423005A
:10229000E4040F1000008347F40293E72700A3072C
:1022A000F402CD311305407E230004048147014729
:1022B000814605468545EFF0EFDF2244B2400145F7
:1022C00041016F10707C797126D206D622D44AD093
:1022D0004ECE52CC03C88500A14413780802631186
:1022E000080683C8050009482E848144639A0805BE
:1022F00003A84500AA89328A8347180003480800CA
:102300003689A207B3E70701C2070D68C187130822
:1023100028906380070581440357A4009737002065
:1023200083D7678B631EF700938741889C4389CBD3
:102330000D473AC22316210152C44C004E858297A4
:10234000B2502254268502599254F249624A45619C
:1023500082808547EF509069AA845DFD938741880C
:10236000984355DB83471A0083460A004C00A207B6
:10237000D58FB337F00085073EC24E85029769BFFF
:10238000011117C50100130525E422CC2EC63284A5
:1023900036C406CEEFA0E172B2458947A24603C615
:1023A00005006319F602D841834717000347070069
:1023B000A207D98FC2070D67C18713072790639BB8
:1023C000E700CC452390C6002285094697200020CF
:1023D000E780C0BBF24062440145056182804167ED
:1023E0007917630CE502411122C406C685472A8489
:1023F000639AF50022852244B240938501A84101E9
:102400006F70902689476396F5008545EF90B0532D
:1024100075D1B2402244410182808280411126C29E
:10242000AA844165938501A87D1506C622C4EF7074
:10243000B023170500001305C5FAEF905048972602
:1024400000209386A679414699451725002013055B
:10245000E572EF70B0152A8419C517C50100130580
:1024600065D7EFA001662285B240224423A291885D
:102470009244410182804111938501A806C6EF5024
:10248000B051B2407D1513351500410182804111D4
:1024900022C42E84938501A826C206C6AA84EF50C2
:1024A000B04F058915C1972700209387276D83D7E3
:1024B000A702A285B2402310F4002244268592444C
:1024C000014641016F603029B2402244924449459F
:1024D0004101828083572500035505003385A740BD
:1024E000420541818280AA8705C21307F6FFB376B1
:1024F000C700054599EA23A00700CCC32394C70071
:102500002395E70001458280054582802320050050
:102510008280AA871145B5C72DC683D6070003D789
:1025200087000D45369783D62700158F42074183D4
:1025300029CB0145B9C5835606006373D700BA8617
:10254000C206C18201471315070141816366D500A8
:102550002310D600014582803385E50083480500BD
:1025600003D8A70003D52700050733780501C84322
:1025700042952300150103D5270005052391A700E7
:10258000D9B782802A8729CD835605008357A500B5
:10259000B697835625008507958FC207C183BE86EF
:1025A0006373F600B286C206C1820D459DCB81479A
:1025B0006394D70001458280035627000355A70086
:1025C00003C805008507718D5043C207C1832A9651
:1025D000230006010356270005062311C700C9BFC3
:1025E00011458280AA871145B1CF29CE83D6070035
:1025F00003D72700158F8356060042074183637374
:10260000D700BA86C206C18209450DCF014763666D
:10261000D7002310D6000145828003D5070003D8D8
:10262000A70033780501C843429503480500338568
:10263000E50005072300050103D5070005052390E4
:10264000A700F1B7828029C50357050083572500ED
:10265000998F3E87C207C1836373F60032874207B2
:102660004183814763E4E70001458280835605008A
:102670000356A5008507758E5441B29683C60600A1
:102680002380D5008356050085062310D500D9BFC9
:10269000114582802A86B305B04017C50100130595
:1026A00025DB6FA0613083D7018B6390A70223994C
:1026B000B18A239AC18A239BD18A2E8617C501002D
:1026C000130585D5BE856FA0212E17C50100130502
:1026D00025D66FA0013F03574500011106CE83D7D1
:1026E000018B6315F702C167F91723A8F18A23AAA2
:1026F000018A85471306F100854513055030A3076D
:10270000F100EF702169F2400561828017C5010078
:10271000130585BFEFA0E13AFDB73171939705012D
:1027200022DD06DF26DB4AD94ED752D556D35AD101
:102730005ECF62CD66CB6AC96EC7C1872E8463DA6D
:10274000070203C59181EF00107819C1EF001071E5
:102750002165218DFA506A54DA544A59BA592A5AD5
:102760009A5A0A5BFA4B6A4CDA4C4A4DBA4D2961C7
:10277000828093F7150091CF172600201306C646D6
:102780009385418903C59181EF70A13413451400ED
:10279000D1B793F7850099CF83C79181130740067E
:1027A00081465146A14503D5018BEF70E12B1345BE
:1027B00084004DB793F70501638F07169387418215
:1027C0009C4385446389970081C70D496377F9105D
:1027D0001345040141B703D5018B713903D7018B30
:1027E00009E9C167F917E315F7FE13850129393B9C
:1027F000C5B73A85EF20803C7515239EA18A1385C5
:102800000129C93983D7C18B636CF5081385012968
:10281000D131AA8517C50100130585AFEFA0C118F6
:102820001386C18B9385014C13850129653B137574
:10283000F50F23A0018C49FD03D6C18B01478146CA
:10284000ED4503D5018B2395C18AEF50204F23A678
:10285000A18A630E050C03D6A18A9385014C9710BB
:102860000020E780A0729385818A014603D5018B01
:102870003939AA8529CD17C50100130565ABEFA02D
:10288000A1128D4723A2F182ED451385818AEF5075
:10289000C0620946C14503C59181EF10E0330DBF09
:1028A0009384018C9840A947E3ECE7F61146C145B3
:1028B00003C59181EF1040329C4017C501001305FC
:1028C00025A6850723A0F18CEFA0A11F11B785478E
:1028D00023A2F182239E018A6DBF03D6C18B0147DB
:1028E0008146ED4503D5018B2395C18AEF50004504
:1028F00023A6A18A0DCD03D6A18A9385014C9710FA
:102900000020E780A0689385818A014603D5018B6A
:10291000BD3EAA8511C917C50100130525A2EFA068
:10292000A10823A221838DB723A2918265B789478D
:1029300023A2F182B9BF93F705026384071A6808DE
:10294000EFF06FAE9387018A844399C023A0018A78
:102950007245FD14EFF02FAF994763E2970E17C74A
:102960000100130727898A04BA949C40BA9782878A
:1029700033852403814601469305F00F85044E9567
:10298000EF00303A83D58182E3E4B4FEB147B385EA
:10299000F502175500201305A58EC205C181EFF081
:1029A0006F9F71A881443149975900209389498DBF
:1029B000D1BF3385240381461306F00F814585047A
:1029C0004E95EF00103683D58182E3E4B4FE7DBFDF
:1029D00081443149975900209389898AEDB733851D
:1029E00024039306F00F0146814585044E95EF00C0
:1029F000503383D58182E3E4B4FE49BF8144314939
:102A0000975900209389C987EDB73385240393062E
:102A1000F00F1306F00F9305F00F85044E95EF00AD
:102A2000503083D58182E3E2B4FE8DB781443149D1
:102A3000975900209389C984EDB7EF0050381345AA
:102A4000040209BB3385240381461306F00F930566
:102A5000F00F85044E95EF00D02C83D58182E3E3FF
:102A6000B4FE2DB78144314997590020938949819B
:102A7000EDB703C5418A19C1EF00103B83C7518AE6
:102A8000CDDF0547E39DE7FA1387418A0349370005
:102A900003C6618AC547935946009374F6001379BB
:102AA000F900B389F902014AB14A174B0020130B10
:102AB0002B7DB384F40293F9F90F3309F90293F4EF
:102AC000F40F1379F90F83D58182E371BAEC3305E2
:102AD0005A03CA862686CE85050A5A95EF007024C9
:102AE000DDB793F70504B1C32808EFF0CF93624533
:102AF00003C6818B83C6918B32C236C0EFF0AF9490
:102B00008246124697C50100938505846808EF90B8
:102B1000117C6808EFA0010093150501C1816808C8
:102B2000EFF02FA01345040435B193F7050863882F
:102B3000071C2808EFF02F8F31469385414B68081A
:102B4000EF90315B624583C7714B3EC083CA414BF6
:102B500003CB514B83CB614B03CC814B83CC914B4B
:102B600003C9A14B83C4B14B83C9E14BEFF0AF8DD7
:102B70008357C10113071010639DE7040357E10158
:102B8000631DF708835701026399E70885476316B9
:102B9000F9080545EF0050299306F00F1306F00FD2
:102BA0009305F00F174500201305856DEF00701792
:102BB000B145174500201305A56CEFE0BFFDA54505
:102BC00017B501001305C57AEFF0AF95134504085A
:102BD00051B605476393E7048357E10103570102A8
:102BE000D98F85EF631B09020545EF00F02381466D
:102BF000014681451745002013058568EF007012D6
:102C0000B145174500201305A567EFE0BFF8A945BA
:102C100017B501001305857645BFE38909FAE387F7
:102C20000AFA139A0A0183D7C14B135A0A01BDEC61
:102C30008507C207C18363F54701239EF14A19A0A6
:102C4000239E014A174D0020130D8D638144B30D5F
:102C50007B019309F00F83D7C14BB387F44093D620
:102C6000F741B58F958F63D96705CA866686E28579
:102C70006A858504EF00F00A310DE3EE54FDB1459D
:102C8000B305BA02174500201305855FEFE09FF0FA
:102C900083C7E14B85DF82472946930500083386C9
:102CA000C70203C59181EF0030730DB781E7930729
:102CB000FAFF61B7FD1751B763DFB703B38567410B
:102CC000B3853503B3C5750393C5F5FF93F5F50FCC
:102CD000B306B9023386BC02B305BC02B3C63603E1
:102CE0003346360393F6F60FB3C535031376F60F66
:102CF00093F5F50FB5BF81460146814595BF93F722
:102D000005100145E38807A42808EFE0DFF16245DC
:102D10009387814A03CB214B03CD814A03C9914A52
:102D200083C9A14A03CAB14A83CCC14A03AC070094
:102D300083DBC14A83D4E14A839A8700EFE0BFF086
:102D4000630D0B10630B0D108547639CFA10938481
:102D50002403C204C1809307703E63F59700FD5AB7
:102D60009304803EB38999029307803E814D330AD4
:102D70009A02B38C9C02B3C9F902334AFA0213F7E0
:102D8000F90FB3CCFC021378FA0F97470020938712
:102D9000274F93F8FC0FC6864286BA853E8546C605
:102DA00042C43AC23EC0EF00C0778247850D124749
:102DB000B1072248B248E3E0ADFFB145B305BD021B
:102DC000174500201305C54BEFE0DFDC93F7FC0F40
:102DD00056881377FA0F93F6F90F268697B50100F8
:102DE0009385855A6808EF90914E6808EF9091524C
:102DF00093150501C1816808EFE0BFF22808EFE0F4
:102E00009FE2624523A4814B2396714B2397914AFD
:102E10002398514B2389614BEFE0FFE283C7214B9D
:102E20008DCF89679387C751B307F9021307F00F56
:102E30003546B3C7E702130770209387471FC207C1
:102E4000C1836376F7001306800233D6C702930569
:102E5000001003C59181EF003058134504106FF046
:102E60007F8F9384E4FCC204C180E39D04EE854A15
:102E7000D5BD7D15954763E4A71217B70100130769
:102E800027390A053A951C41411122C406C6BA9752
:102E90002E84828717B501001305055D2244B240D8
:102EA00041016F90114203C7250099476315F70050
:102EB0002E85EFF05F8217B501001305E55BF9BFC2
:102EC00003C7250095476318F70CC16703D7018B2B
:102ED000F91703D5A500630FF700EF70211217B59E
:102EE00001001305655AEF90D13D17B50100130598
:102EF000255C6DB72398A18A83D7E5000966130680
:102F000006902399F18A83D7050103C59181239AFD
:102F1000F18A83D72501A145239BF18AEF00D04B8D
:102F20000356E4008355A40017B5010013050557A7
:102F3000EF9091275DBF17B5010013052558B9BF64
:102F400083C5250091476397F50017B50100130568
:102F50006558A9B799476390F5022285EFF0AFF75E
:102F60008345640017B50100130585582244B2401B
:102F700041016F9071239547639AF50083471400D0
:102F8000E9F717B501001305655809BF17B501002A
:102F900013054558E1BFB24022444101828082803E
:102FA00001469305000203C591816F00F0420111B3
:102FB000680006CEEFE03FC783C7E18B89CB0946A7
:102FC000C14503C59181EF003041238F018A32450D
:102FD000EFE07FC7B745004083C7B5C01D47636EAC
:102FE000F70083C7B5C02146938585C01D8E420674
:102FF00041821385C149EFF00FE5F24005618280FF
:103000004111130600209385C1291385C14906C6C5
:1030100022C4EFF04FCD05661306068097250020E9
:103020009385C50113850129EFF0EFCB37140040DC
:103030008327840A8D451305000293E707022324A2
:10304000F40AEFE0BF9A8327840A8545414593E758
:1030500007012324F40AEFE07F99EFE01FD29545A2
:103060000545EFE0BFD4B2402244B7E700E0114786
:1030700023A2E7104101828001112317B10013063A
:10308000E100AA851385C14906CEEFF08FC8F24052
:1030900005618280411122C426C206C6AE848345E2
:1030A00005002A8417B5010013050518EF90D10F0C
:1030B00083470400130710036399E7028D452165D8
:1030C000EFE03F9D371700408327C70CA166B94545
:1030D000D58F2326F70C17B501001305E5152244FB
:1030E000B240924441016FE0DFC3130700036394D1
:1030F000E7028D452165EFE0DF9937170040832710
:10310000870CA166BD45D58F2324F70C17B50100A8
:1031100013058513E9B71547637697041307E00E87
:103120006395E71A834654001307F00F6392E60491
:103130000347140083474400930500022382E18A79
:103140000347240017B5010013050511A382E18A86
:10315000034734002383E18AA383F18A9D4723A098
:10316000F18AB5BF6396E4161307E00E6392E71683
:10317000034744009306F00A631DD71083471400E9
:10318000238CF18A03472400A38CE18A034734008F
:10319000238DE18A05476387E700F11793F7F70F5F
:1031A0006368F71293050004014603C59181EF009F
:1031B000B022FD4517B501001305050C0DB7834678
:1031C00094009307F00B6390F60E8347140091EB85
:1031D000238F014AED26D54517B501001305C50B10
:1031E000FDBD834824000348340003455400834553
:1031F00064000346740083468400238AF14AA38B4B
:10320000E14A238CA14AA38CB14A238DC14AA38AE7
:10321000114B238B014BA38DD14A239E014A854735
:1032200093050008014603C59181238FF14AEF0001
:10323000B01AF94517B50100130585074DB50347C9
:10324000640003452400834534000346440083465C
:1032500054002384F14AA386E14AA384A14A23852A
:10326000B14AA385C14A2386D14A2397014A85479B
:1032700093050010014603C591812398F14A2389E3
:10328000F14AEF007015F94517B501001305C505A2
:10329000B9B5A546E3E596F21D47637B9702130790
:1032A000E00E6397E702034774009307F00C631185
:1032B000F70283471400C1F72389014A0926D5453F
:1032C00017B501001305C50019BD2547E37697FC26
:1032D000B24022449244410182809C41011106CEB9
:1032E00022CC09476383E7020D476386E70205475F
:1032F0006399E700AA8517B501001305E50BEF9068
:10330000A16AF240624405618280AA8517B5010076
:103310001305C50CEDB72E8483D5850017B50100C4
:103320001305050EEF904168835784004C40130647
:10333000E100138501292317F100EFF08F9D094665
:10334000C14503C59181EF00300983558400484091
:103350002533835584004840353B65B7011117F587
:10336000FFFF1305C53B06CE22CC26CAEF00304135
:1033700013849181994785442300A4002315F1000B
:10338000130691009307803E8545130550302316A0
:10339000F100A3049100EF60F11F1726002013062F
:1033A000E686E94513057030EF60D11E1386C181B2
:1033B0009D4513056030EF60F11D1306A10089459E
:1033C00013051031EF60111D700089451305203180
:1033D000EF60511C9305000A0D45EF20101A93056C
:1033E000000A1145EF2070197000914513057040D7
:1033F000A303910023049100A304910002C62305B6
:103400000100EF50111613067100854513050040A9
:10341000EF5031153000854513051040EF50711401
:103420001306A100854513052040EF5091131306A4
:103430009100854513055040EF50B1127D55EF4086
:1034400040597D55EF60301FEFE05FB21705000077
:103450001305E5E8EFE09FFC1716002013068679B8
:10346000D5450145EF400049C1671387018BF91726
:103470001CC3232207001385C188EF40616C0345FC
:1034800004001306803E93050008EF00E074034536
:103490000400370701FF9387814A1307A7F098C3F9
:1034A00023A2070005471306803E930500102394CE
:1034B000E7002385E700EF002072034504008545FF
:1034C000CD2BF2406244D244056182804111130544
:1034D000800406C697000020E7806043371700404D
:1034E0008327870A8D451305002093E707202324AF
:1034F000F70AEFE0AFCFEFE0AFFF17B5010013051C
:10350000251AEF90015CEFE0BFBFEFE03FD2EF6024
:103510003131A935EFF0DFAEDD2897000020E780DC
:103520000064B7978888938787885CC11713002049
:103530001303836F8147A14813F7150011CB13982C
:1035400027001A985841032808003367070158C11B
:1035500085078581E39217FFB797888893878788C7
:103560001CC1971800209388286C81472148137745
:10357000160001CB93952700C69518418C414D8FBD
:1035800018C185070582E39407FFB797888893875A
:1035900087881CC517180020130808698147A145B2
:1035A00013F7160001CB13962700429618451042D8
:1035B000518F18C585078582E394B7FE828041113B
:1035C00022C426C24AC006C60144B144174900209D
:1035D000130909CB83D581826362B402B147B385F5
:1035E000F5022244B24092440249174500201305D7
:1035F00025C94101C205C1816FE0CFD933059402CD
:1036000081460146814505044A95213FE1B74111B4
:103610001D658D4506C6EFE06FBDEFE0EFD1B2400E
:103620003D4541016FE06FD49307F5FFC207C183A9
:10363000130730066364F7002394A182828023ACD1
:1036400005FE1C4191E7010001000CC18280BA8790
:1036500003A787FF6DFF23ACB7FE82801DC18346A1
:10366000E5FF1307F00F9147639EE600411106C680
:1036700097100020E780C032B24081473E8541016B
:10368000828095473E85828001E90145828001451F
:10369000B240224441018280411122C42A84210582
:1036A00042059305D004418106C697100020E780AB
:1036B000802571DDFD57232005002312850023039B
:1036C000F5002105F1B71387418C1C43411122C439
:1036D00026C24AC006C601440149BA8489E7A165E9
:1036E00095250DC401A803C7E7FF6318A7021DC8ED
:1036F000A165C1269840832784FF6317E40223A2B3
:10370000F18CFD57232C04FE230FF4FE2285B240DA
:103710002244924402494101828011E03E8983A7FC
:1037200087FF6DBF3E84E5BF232CF9FED9BFA9C931
:10373000411122C406C62A849747002083C7170375
:103740002E856368F400193F0D45B24022444101C3
:10375000828083A785FF99E703C7E5FF9307F00FF2
:103760006305F700E53D1545CDB7238F85FE13852D
:10377000418CF13522852244B240A165410115AE4C
:103780001545828023A2018C82809387C18D9C4342
:1037900099E33E85828003D727006316B70003C7ED
:1037A0000700E308A7FEDC47E5B741119397050141
:1037B0004AC006C622C426C2C1872E8963DE07001E
:1037C000193711C1613D21653345A900B24022443A
:1037D0009244024941018280AA860145E5D901440B
:1037E0003D47B3578940858B95CB9387018D8443A3
:1037F000BD4791E28147A2978E070545BE943315D8
:103800008500131405019C40C8404180829723A085
:10381000040023A20400334524014DBF0504E31234
:10382000E4FC0144CDBF97470020938767F09C5389
:10383000411122C406C61384C18295C7829723A66C
:10384000A1820840B74703009387D73F3305F502AD
:10385000B7A72600938737ECB24022443E9523A6B3
:10386000A1824101828097470020938727F018406A
:103870009C4BBA9723A6F182E9B79387818C90433A
:103880009746002083C696EE814713F7F70F6360D3
:10389000D70A174700200347D701914763E0E70A9B
:1038A0009747002083C78705918BC9EB01116800FA
:1038B00006CE22CC26CAEFC0005EFD56630FD50CA3
:1038C00032479747002083C7D7E763F3E70C1747D2
:1038D00000201307A7E9404717470020034787E662
:1038E0006305D406058B21CF51473304E40263F10D
:1038F000870A97100020E780808EB2476373F40038
:10390000A287174700200347D7E3998F3E95974733
:1039100000209387E7E18387470163CD0702B7075C
:10392000C0A86369F502B70740573E9525A08507F3
:103930001397170032970357E7FF21DB82801307A5
:1039400090023304E40205805DB762076187635724
:1039500007001D8D19E93705C0A801A8E37BF5FE16
:103960003707C0A8B307F7403E95974700209387D5
:1039700027DCDC53829709ED97470020938707F3F4
:103980009C4F99C7EF104141EF10511FEF102135A7
:10399000F2406244D24405618280974700209387B9
:1039A000E7DCDC47E386A7FE17470020130747D86C
:1039B00083464701BA84858A9DC651443384870271
:1039C0009747002083C7F7D7E3F487FC97100020C0
:1039D000E780E0809747002083C7B7D61D8C2295EB
:1039E000838744011DBF130490023384870205803E
:1039F000C1BF2A9609E582800505A30FB5FEE31D28
:103A0000C5FED5BF81473307F5000307070019E35B
:103A10003E8582808507C5BF01112E8626CAAA84ED
:103A2000131506019305F004418122CC06CE32C65F
:103A300097100020E78020ED2A8419C53246A6851C
:103A400097000020E78080542285F2406244D244EF
:103A50000561828081476314F60005458280330743
:103A6000F5008507B386F5000347070083C6F6FF18
:103A7000E383E6FE014582809307F6FFBE952A9612
:103A80006313C5008280FD1583C715000505A30FCC
:103A9000F5FEFDB7814711E9014582803307F50046
:103AA00003470700E31AB7FE8507E319F6FE05454D
:103AB00082809747002083C777CB637FF500138709
:103AC000818C9317150008433E9583570500DD8DC3
:103AD0002310B500014582800D458280FD570111FC
:103AE00017470020232AF7C89387C18D22CC804333
:103AF0004EC6974900209389A9C326CA4AC852C412
:103B000056C206CE5AC02A8981444E8A974A00205E
:103B1000938ACAC5184481476374E900B3072741F3
:103B200003A749021CC409CB03A7CA0063F6E70038
:103B3000174700202322F7C4A1E7835524009DE9FD
:103B40005C44A1E823AEF18C032BC40022859710BE
:103B50000020E780E0E45A8455FC83274A0285CFA1
:103B60006244F240D2444249B249224A924A024B4C
:103B7000056121B3034504002D3F5C4081CB1CC48B
:103B800083572400D5DFA2844044F9B71C44CDDB21
:103B9000C5BFDCC455BFF2406244D2444249B24979
:103BA000224A924A024B056182809747002083C7D0
:103BB000F7BB6371F5021387818C931715000843D7
:103BC00093C5F5FF3E9583570500FD8D2310B50085
:103BD000014582800D4582809747002083C717B931
:103BE0006364F50001458280411122C426C24AC0A7
:103BF00006C62A842E89B284EFF03FB901C504C5F8
:103C000005452DA0936504F0C205C181414597107B
:103C10000020E78040CF0DE197470020938747B110
:103C20009C5B81C7A285114582970145B240224421
:103C300092440249410182809387C18D9C438DE368
:103C400023AEA18C85472326050004C52311250139
:103C500023008500A300F5002322050055B7BA878D
:103C6000D84775FFC8C7F9BF45C539715AD0138BFE
:103C7000018D22DC26DA4AD84ED652D45ECE66CAF0
:103C80006AC86EC606DE56D262CC3689328AAE89E2
:103C9000AA8401445A8DB94D854BF94C03270B007A
:103CA000131C3400937AF40F62971C43A9EF13B5E9
:103CB000FA0013451500B3978B0063F65D01930777
:103CC00014FFB397FB0093950701C18152862937F2
:103CD0001DC983270D000145E29784C323A2370144
:103CE0006304090023005901F2506254D25442592E
:103CF000B259225A925A025BF24B624CD24C424D5C
:103D0000B24D216182800504E31A94F92145E9BF8F
:103D100009458280411122C426C24AC006C6AA842F
:103D20002E893284553DCA852685EFF01FA609C924
:103D300040C10145B240224492440249410182807F
:103D40002145CDBF411122C426C24AC006C6AA845D
:103D50002E89EFF09FA32A8419C1231105009747EC
:103D6000002083C7A7A063949700239A218DCA855A
:103D70002685253D014511E01945B2402244924473
:103D80000249410182807547636BA7041387018D47
:103D90001443411126C293143500A696944222C4BE
:103DA00006C6AA873A84094595C613B5F700394770
:103DB000134515006373F700C5178545B395F500E6
:103DC000C205C18141371C400145A69723A00700C9
:103DD00023A20700B2402244924441018280094557
:103DE0008280411106C6EFF05F9A09C50845B240CE
:103DF000410182800145E5BFF54763EDA704938744
:103E0000018D9C4313173500BA979843894721C702
:103E1000011126CA06CE9334F50022CCB94793C4CB
:103E2000140063F3A700451505443314A4004204AD
:103E300041802EC62685A2856D378947324609C541
:103E4000A2852685513B8147F2406244D2443E859B
:103E50000561828089473E8582802396A18C2397C5
:103E6000B18C8280411106C623ACA18C0295B24070
:103E70009747002023A6A7900145410182809947DA
:103E800063E9B7008A059747002093876790BE953E
:103E900088C18280411106C6EF60811F714681454D
:103EA000174500201305C58EEFF0BFB4130640027E
:103EB0008145174500201305658BEFF09FB323AEB6
:103EC000018C23AC018C9747002083C7278813D52A
:103ED00027008D8B3E958D473305F5029305101015
:103EE00035051375F50F974700202382A78899475A
:103EF0003305F5021305050F97100020E780A0A0F9
:103F000023A8A18C35C99947174600200346268669
:103F10003306F60281451306060FEFF09FAD938737
:103F2000018D9C439387070F23A0F18E1747002034
:103F30000347E7830A07BA9723A4F18CEFF09F8425
:103F40005D269387018E98439747002083C7178289
:103F500093962700BA96170600001306468590C26E
:103F600093862700850793F7F70F8A079735002078
:103F7000A38ED57EBA9790C3B24041018280973715
:103F8000002083C7B77E173700200347477E63F1C1
:103F9000E7021387018E1843938617001736002017
:103FA000A306D67C93962700369708C33E85828069
:103FB0009307F00FE5BF1C416381071A41777D8F9E
:103FC000B70600208947631BD718035745006307CE
:103FD0000718411122C419462A849305F00F590588
:103FE00006C6EFF03FAB05478D476303E5161C445B
:103FF00081CB58589947630D0714185C630A07145E
:104000001306C00381451735002013056572EFF0D4
:104010005F9E1306C003A285173500201305457166
:1040200097000020E78080F69737002083D707713C
:10403000973600209386C66F99E7930700101737CD
:104040000020231DF76E9737002083C7476F91E745
:104050008547173700202304F76E9737002083C762
:10406000176E91E7ED4717370020A30AF76C9737D3
:10407000002083C7E76C91E795471737002023019D
:10408000F76C9737002083C7B76B91E785471737E1
:104090000020A307F76A9737002083C7B76A99E71C
:1040A00083C7060117370020A30EF7689737002053
:1040B00083C7276991E7D147173700202303F768A3
:1040C0009737002083C7A76895E717370020034775
:1040D00067671316870161869307C002634806006D
:1040E0009377170093B717009387D70217370020ED
:1040F000230FF7649737002083C7B76495E7173716
:104100000020034727641316870161869307C002C6
:10411000634806009377170093B717009387D70279
:1041200017370020A30FF7608347D40191E7894731
:1041300017370020A30CF7609C5691C782979737DA
:1041400000202398A762B933FD57A38AF1A48147C1
:10415000B24022443E854101828089473E8582806B
:10416000011122CC06CE2A842EC6EFF0CFEBB24549
:10417000F240818D33A5A502229562441375F50F97
:1041800005618280011122CC06CE2A842EC6EFF072
:104190008FE9B245F240818D33A5A5022295624494
:1041A0004205418105618280011122CC06CE2A841C
:1041B0002EC6EFF04FE7B245F240818D33B5A50230
:1041C0002295624405618280973700209387475685
:1041D000985725C3411122C426C206C6BE84029741
:1041E000173700200357E7582A8441C7BA876373FB
:1041F000A700AA87C207C183BA866373E400A286B8
:10420000C206C182958F51476355F706DC5491C3AE
:104210008297854717370020230EF768EF10210299
:104220009737002023978754B2402244924441019B
:1042300082809737002083C7E7679DE79737002084
:104240009387C76683C79700850793F7F70F1737DC
:104250000020A301F766A18B9DC785471737002073
:10426000231AF7646F10810397370020A384076433
:10427000D5BF9737002083C7E763DDD72244B2401C
:1042800092444101C5B78280973700209387474AFF
:10429000D857011122CC06CE3E8401C72AC6029708
:1042A000324511CD23A2A18E170500201305A5F4D8
:1042B000EFF05FBBF24062440145056182808307F5
:1042C000440163DD07009737002023AD074A9707B5
:1042D00000209387E7EC23A2F18EF9B7970700201F
:1042E0009387E7EFCDBF011122CC173400201304D0
:1042F0002444084406CE26CA4AC801E90545F240CE
:104300006244D2444249056182805C58E5DB185C16
:1043100075D77000854582971844B247E300F7FED1
:104320009305E00417350020035545419700002010
:10433000E780605D173700202328A74461D1173636
:1043400000200356A63F9305F00FEFF08FEA81445B
:1043500017390020130989419737002083C7273E6A
:104360000326C90163C1F402328597000020E7806B
:10437000206301459737002023A807409737002086
:1043800023A60740ADBF9735002083D5253BB387D3
:1043900095020844185C898185043E9508C20297FD
:1043A00065BF411122C417340020130464381C4433
:1043B00026C206C64AC0973400209384243B91EB62
:1043C000C84C35E9B24022449244024901454101BA
:1043D00082801C5CF5D7DC4C99EF9305E00417351F
:1043E00000200355A53597000020E780C05197377E
:1043F000002023ABA738C84C61D5173600200356E0
:10440000E6339305F00FEFF0CFDE01499737002038
:1044100083C7E732D04CE355F9FA9735002083D5AE
:10442000E531338525031C44898105093E951C5CD3
:1044300008C28297E1BF97000020E7806056973757
:10444000002023A307349737002023A107349DBF02
:10445000011156C2973A0020938A8A2D83A78A00B9
:1044600022CC4AC84EC606CE26CA52C45AC0AA8911
:104470002E8432896385072203A74A036307071442
:104480007D476366A714973400209384242E03AAE3
:10449000C40163170A0A9565938515E01735002056
:1044A0000355C52997000020E780E0459737002095
:1044B00023ACA72C2A86630A051083A74A0303A509
:1044C0008A009735002083D565278981829783A745
:1044D0008A0003AAC401173700202329F72A894735
:1044E000639CF908C1476312F40E9735002083D509
:1044F000E524938505FC9147B3C5F5028A05D2955D
:1045000003C705009307A005631DF70A83C71500BD
:104510006399370B4A852286910597000020E78032
:10452000E0A6DC4C5285639347150145F240624496
:10453000D2444249B249224A924A024B05618280E2
:104540009850E38EE7F89565938525E017350020B0
:104550000355C51E97000020E780E03A2A8A35C53A
:104560002A8683A74A0303A58A009735002083D5AE
:10457000E51C89818297A5B78D47639DF900C147E6
:104580006315F4049735002083D5451B938545FDBD
:10459000F199B5B79147639AF900631834039735D9
:1045A000002083D5A519A115E5B7C147639FF90080
:1045B000A14763EC87009735002083D52518C115E6
:1045C000C1BFDC4C52856397470D294585B713075A
:1045D000F006568B6361A70A130A05FE1947334A92
:1045E000EA021737002003576715973A0020938A8D
:1045F000EA17330AEA023E9A83A70A026395470143
:1046000083A4CA019DE49305E004173500200355F7
:10461000E51297000020E780002FAA845DD583274C
:104620004B039735002083D565112A8689815285F1
:10463000829791451307A005898193972500A69736
:1046400083C607006393E60483C61700639C3603A2
:1046500085058A052286A6954A8597000020E78071
:10466000E09283A7CA01E38297EC26859700002099
:10467000E78000335DBD1307E007E368A7F4130A82
:1046800005F985B783D5270045BF83A7CA01E38E07
:1046900097F2268597000020E78080303DB7973756
:1046A00000209387A70CCC4F8DD191479306A0058E
:1046B0008983139727002E9703460700E317D6F048
:1046C00003461700631C360185078A072286BE95BC
:1046D0004A8597000020E780608B81BD83572700C3
:1046E000C1BF973700209387A704984739C79C5FBD
:1046F000A9C705476313E504411122C417340020FC
:104700001304C406504C06C60DC608509735002049
:1047100083D5C50289818297484C97000020E780A5
:1047200020289737002023A107069737002023AFC2
:104730000704B24022444101828082800111173770
:1047400000201307E7FE4EC68329870022CC26CA25
:104750004AC806CE52C456C2AA842E843289638ABD
:1047600009201C5FBA8A99EB2945F2406244D24481
:104770004249B249224A924A056182805C5BEDD788
:10478000FD4763E9A70E97390020938929FE83A787
:10479000C901B1CB03A58A0083A709026395A706C7
:1047A00089476393F408C147E310F4FC17350020F0
:1047B0000355C5F89147130505FC3345F5029317DA
:1047C000250003A5C9012286CA853E959307A00549
:1047D0002300F500A3009500110597F0FF1FE78067
:1047E000E07A014559B79305E004173500200355D9
:1047F000E5F497000020E78000119737002023A5FB
:10480000A7F849F995B783A74A0303A6C9019735C5
:10481000002083D5A5F28981829783A78A00173764
:1048200000202325F7F6ADBF8D47639EF400C147F6
:10483000E31CF4F217350020035545F0130545FD40
:104840009377C5FFBDBF9147639AF400E31E94F0D0
:1048500017350020035585EE2115DDB7C147E395D7
:10486000F4F0A147E3E287F017350020035505ED8A
:104870004115F9B79307F00663EAA706930705FE0B
:104880001947B3C7E70217370020035727EB173A3A
:104890000020130AAAEDB387E702BE998327CA0155
:1048A000A9CF83270A02639A37070325CA019146D5
:1048B0001308A005FD5593D72600C207C18313979F
:1048C00027002A9703460700631D06078348170041
:1048D0000356270063959806B306D64063CF860437
:1048E00085078A072286CA853E95C5BD9307E007DE
:1048F000E3ECA7E6930705F979B79305E0041735CC
:1049000000200355A5E397000020E780C0FF9737FC
:10491000002023ABA7E651F581BD83A74A030326F8
:10492000CA019735002083D565E189814E8582973C
:104930009737002023AC37E58DBFA300B700B286C0
:104940009DBFB385860017360020035626DF9105EC
:10495000130606FCE3FAC5E0130634001376C60F0F
:104960001106B29623000701A30097002311D70078
:1049700085BF97370020938767DFD44FBE89A1C2D8
:1049800003A5C90191461308A005FD5593D726003C
:10499000C207C183139727002A97034607006316AF
:1049A0000605834817000356270063989800B3064E
:1049B000D640E3D786F2A300B700B286C1BF8357C3
:1049C000C70017350020034585D79305E00433055C
:1049D000F5024205418197000020E780C0F2973739
:1049E000002023A3A7DA49FD41B317360020035660
:1049F000E6D49735002083C585D4B385C5023386B8
:104A000086001106E3E2C5D681BF0145828083C7D7
:104A100005002300F50083D72500A300F50083D708
:104A20002500A1832301F50083C74500A301F500FC
:104A30001145828023A6018E23A4018E828029C184
:104A4000411126C206C622C4AA8401458DC52E8402
:104A50002285414697A50100938585AC97F0FF1FFD
:104A6000E780C05283C7040005452306F40083C7CE
:104A70001400A306F400B240224492444101828013
:104A800001458280011122CC26CA06CE0947AA849C
:104A900032846381E50441468147639BC500638F8F
:104AA000E6006397B6000DA841478147638EE60094
:104AB000F2406244D2443E85056182808A85228527
:104AC000BD3F41468A8519A88A85953F41468A851A
:104AD000228531A0E39AB6FC2E86A2852685EFE0DA
:104AE0007FF7AA87F1B723A6A18E8280011122CC7D
:104AF0000354650006CE26CA4AC84EC641C0832963
:104B00008500AE842A8803C90900814713178901EB
:104B1000618763550702B147054563FA870451145D
:104B2000420403552800418033878900A2864E86BF
:104B30008545EF903064B337A00085077D14135589
:104B40006900420405891379F90341802380F40048
:104B5000A380A4002381240123928400014719C06B
:104B60001387190098C409476383E7000145F240A1
:104B70006244D2444249B249056182800545C5BFBD
:104B8000C167F917630AF502D94763F7B702011144
:104B900022CC2EC606CE2A84EF50704AB2456368F6
:104BA000B50022856244F24005616F70C05CF2403E
:104BB000624405450561828005458280C167F91719
:104BC0006314F5006F50B047411106C6EF70604A9C
:104BD00011E15D45B2404101828039714ED656D215
:104BE0005AD006DE22DC26DA4AD852D4AA8A2E8B84
:104BF000B28941EF36C6D937CD45EF50D054AA849B
:104C00004D492DC9B246054A238034010544630A43
:104C10000B00B68513851400029B050513140501CE
:104C20004180E20993D9894163D30902C145568580
:104C3000EF706051654905E933868400A2852685B9
:104C4000EF9050172A8905E13104420441809147D1
:104C50002C085685231CF10026CE231D8100EF6011
:104C6000905D2A8901C963070A0026859700002004
:104C7000E78000D3F25062544A85D2544259B25967
:104C8000225A925A025B21618280BA84014AADBFE6
:104C9000011122CC26CA4AC84EC606CE2A893284C1
:104CA000B689253FAA8405E19387C18E9C4381CFB5
:104CB00005476317E40003C4090005041374F40FE7
:104CC000A2854A858297F240624426854249D244B1
:104CD000B24905618280AE8601470546970500000E
:104CE000938525D375B7011106CE2EC6EF70E0343B
:104CF00001C9B245F2400355250005616FA0A063CC
:104D0000F240494505618280A38C0190238C01907B
:104D100023A0019023A2019023A4019023A6019037
:104D200023AE018E23AC018E97370020938707A80E
:104D30003707B40098C33747A000D8C3370710001F
:104D40009306070A94C7B7065000C106D4C7930656
:104D500007054107D8CB3707D007410798CF37075A
:104D6000840398D337C70700130707B8D8D3416720
:104D700094CB93060701130717F8D8D7370781FF9D
:104D800098DB7D5723AE070094D7239AE7028280F1
:104D9000011126CAAA84214522CC06CE2E8432C611
:104DA00036C43AC2EFE05F8E1DC9A24612473246B2
:104DB000930700FD2300F5009947A3009500230108
:104DC000F5002303D500A303E5002312C500AA853F
:104DD00022856244F240D24405616FE05F95F24063
:104DE0006244D2440561828023A0A190828023A2E4
:104DF000A190828023A4A190828023A6A19082808A
:104E0000011122CC4AC806CE26CA2A890144B3041D
:104E100089006368B400F2406244D24442490561AB
:104E200082802EC6EFE03FA093170501C183A183C6
:104E3000B2452380F4009307140093F7F70F85041D
:104E400063F9B700CA9709042380A7001374F40F0D
:104E50007DBF3E847DBFC167173500200355E598AF
:104E6000FD176302F502411103C6419A9385019132
:104E700006C6EF60D07DB240FD57173700202316DD
:104E8000F79641018280828009C925151375F50FB7
:104E90001335850E134515008280014582802380DD
:104EA0000500F94763E2C708797122D426D24ECEB5
:104EB00056CA5AC806D64AD052CC5EC63684B28983
:104EC000AE8A2A8B814463FF3405B307940003CA7A
:104ED0000700138914001379F90F63050A04B30757
:104EE0002A0163C1F904B307240183CB07005E855F
:104EF000613F0DC99307FAFF2380FA0063906B03AB
:104F0000130519002295B250225492540259F249C5
:104F1000624AD24A424BB24B45618280D29493F4AA
:104F2000F40F55B70145C5B701458280411126C22E
:104F3000AE8422C49737002023A0C78C9737002067
:104F400023AAB78A9737002023A4A78A2A84414638
:104F50009305F00F26854AC006C60549EFE09FB3CA
:104F6000631E2503973700209387C787884BC14569
:104F7000413D41469305F00F2285EFE0BFB18544E6
:104F8000631695022244973700209387A785B24085
:104F900092440249C847C14541019DB541468145FA
:104FA0002685EFE03FAFE31625FD6DBF4146814505
:104FB0002285EFE03FAEE30795FCB24022449244E5
:104FC000024941018280411122C426C22E84AA8452
:104FD000130600028145173500201305A58006C67B
:104FE000EFE03FA197270020A38F977EA383819AAC
:104FF000EFA0E035854719C181474945B2402244B9
:10500000172700202300F77E9244410182808147C8
:1050100081CD19C98547631BF50083C7550093E708
:1050200007FCA382F50085473E8582808947631788
:10503000F50083C7550093F7F703E5B70D4785479C
:10504000E314E5FE03C755001377F703136707045E
:10505000A382E500D1BF81478DC105C103C75500BB
:105060009306000C85471377070C6308D700930657
:1050700000048D476303D70089473E858280411134
:1050800022C4005D06C626C21DC8AA84085009C5F0
:1050900097000020E780C090485009C59700002085
:1050A000E7800090085409C597000020E780408FF2
:1050B000228597000020E780A08E23AC0402B24036
:1050C000224492444101828009ED9727002083C742
:1050D0008771172500201305657281CB1385018F19
:1050E0008280172500201305657182801725002016
:1050F0000345656F8280972700209387A76EC84776
:105100008280972700209387E76D884B82809727BE
:1051100000209387276DDC4B8843828097270020EF
:105120009387476CD84B1C4385071CC31725002069
:105130000345756B9307F00F6305F50091656FE00C
:105140005F978280011122CC06CE2E8432C6EF609A
:10515000107E9147B245631FF5009387C1909C4331
:105160008DC303A30700630E030022856244F2404F
:1051700005610283938741909C4381C703A3470045
:10518000DDB7F2406244054505618280011122CC01
:105190002A840355450006CE26CA4AC84EC6EF608B
:1051A000F05935C52A89834405008349C500C13DAE
:1051B0004A85EF70505103554400EF60D07283C7A9
:1051C0008191B1CB6399970483C591912685EFF0C6
:1051D0009FB119E1238C019003554400EF603075B5
:1051E0009147631FF500035744009727002083D79A
:1051F000C75F6317F700FD57172700202317F75ED7
:10520000F2406244D2444249B249056182808149F8
:105210009304F00F6DB79307F00FE38FF4FA834612
:10522000640003564400034524004E87A685EFF032
:105230003FB65DB779715EC6AA8B2E8552CC56CA31
:105240005AC806D622D426D24AD04ECEAE8A328B47
:10525000368AEF60B04E6DC1045D2A89F1CC9C5056
:10526000614599C3130540039C5481C7510542050C
:10527000418163050A00710542054181DC5081C707
:10528000590542054181EFE02FC02A8455C561468A
:105290008145EFE00FF69729002083C929546394D4
:1052A000090083490900930700FD2300F400A94782
:1052B000A30074012301F400230364018C50231222
:1052C00054011305840191C908C47146930A44032B
:1052D00097F0FF1FE78080CB56858C5491C948C456
:1052E0005146930A450197F0FF1FE78020CA568573
:1052F000630C0A0008C87146D285930AC50197F06D
:10530000FF1FE780A0C85685CC5099C548C85946AC
:1053100097F0FF1FE78080C7A2854E85EFE02FC181
:105320002254B2509254F249624AD24A424BB24B92
:105330004A8502594561A1B3B25022549254025990
:10534000F249624AD24A424BB24B45618280011116
:105350004EC6AA892E854AC806CE22CC26CA2E89D8
:10536000EF60D03D31C59724002083C4244799E0E5
:10537000834405001945EFE02FB12A8415C9814502
:105380001946EFE00FE7930700FD2300F400B9474B
:10539000A30034012301F40023122401A2856244F6
:1053A000F2404249B2492685D24405616FE02FB8E8
:1053B000F2406244D2444249B24905618280397167
:1053C0005ECEAA8B2E8526DA4ED652D456D25AD02D
:1053D00006DE22DC4AD8AE84328BB68A3A8ABE898F
:1053E00042C6EF60B03531C92A894145EFE0CFA907
:1053F0002A8421C541468145EFE0AFDF1725002013
:105400000345C53D19E103450900930700FD23004D
:10541000F400BD472301F400B247A3007401231236
:10542000940023046401A304540123054401A3054B
:1054300034015CC4A285EFE08FAFF2506254D254C5
:105440004259B259225A925A025BF24B2161828030
:10545000797126D2AA8439454AD04ECE06D622D4B6
:105460002EC6B2893689EFE02FA221C1B24593073B
:10547000000D2310F500B1472A842312B500230143
:10548000F500CE851905194697F0FF1FE78000B09B
:1054900023062401A2852254B2500259F24913F581
:1054A000F40F925445616FE08FA8B2502254925489
:1054B0000259F24945618280172700200347B7321D
:1054C0009307F00F630DF706411126C2AA843945F0
:1054D00022C406C64AC0EFE02F9B2A8439C993072D
:1054E00000FD2300F500A30095002301050097258A
:1054F00000209385A5300D05194697F0FF1FE78022
:10550000E0A8172900201309E92D83578900A285F7
:10551000172500200345352D2315F4008347190076
:105520002306F4002244B2409244024941016FE054
:105530000FA0B240224492440249410182808280FD
:10554000011156C2AA8A314526CA4AC84EC652C45B
:1055500006CE22CCAE84328AB6893A89EFE0CF9269
:1055600029C92A842685EF60701D1DCD03450500DD
:10557000930700FD2300F4009D47A300540123017D
:10558000F40023129400231344012314340123153F
:105590002401A2856244F240D2444249B249224ADF
:1055A000924A05616FE0AF98172500200345B523A7
:1055B000C1B7F2406244D2444249B249224A924AB7
:1055C00005618280397162CC2A8C594526DA4AD825
:1055D0004ED652D456D25AD05ECE06DE22DCAE84EF
:1055E00032C636C4BA8B3E8BC28A468A83590104BE
:1055F00003494104EFE04F8935C53246930700FD6A
:10560000A2462300F5009547A301C500A30085012C
:105610002301F5002A8419461105A9C2B68597F021
:10562000FF1FE780A09623066401230A24012315A7
:105630007401231754012318440123193401A2854E
:105640006254F2504259B259225A925A025BF24BBA
:10565000624C2685D25421616FE06F8D8145EFE069
:105660004FB9D1B7F2506254D2544259B259225A6A
:10567000925A025BF24B624C216182809727002094
:1056800083C767168DCB4111AA8519461385018FF3
:1056900006C697F0FF1FE780608F9385018F17255F
:1056A000002003454514EFF09F96B2401385018F0B
:1056B00041016F90504A014582801727002003471F
:1056C00097129307F00F6305F708411126C2AA84C9
:1056D000294522C406C6EFD03FFB2A8429C193077F
:1056E00000FD2300F500A1472301F500A30095006C
:1056F000972700209387070F83C727009385018F83
:105700001105A30FF5FE194697F0FF1FE7800088EB
:10571000A285172500200345150DEFE04F811727BF
:1057200000200347470C8D47631FF7009387819044
:105730009C4391CB03A38700630703002244B2403C
:10574000924441010283B24022449244410182804A
:1057500017270020034727098D47631AF70093870F
:1057600081909C4389C703A38700E31D03FC8280CB
:10577000797122D406D626D24AD04ECE52CC0944D4
:1057800045C92A89035505002E8A5144EF60007BE4
:10579000AA8459CD83C7719AFD1793F7F70F054770
:1057A00049446377F7080347C500A1476314F7002E
:1057B00063100A089C5C4544A5EF9165938545718B
:1057C0001305C00297F0FF1FE780E01388DCAA8969
:1057D0004D4439CD1306C0028145EFE08FA18357B8
:1057E00009009386490036852391F9007146930597
:1057F000490036C697E0FF1FE7804079894723803C
:10580000F90003C5C400B24603560900611583C5FB
:10581000419A13351500EF9020092A8463060A0087
:10582000D2852685EF70501501C42685EFF03F859F
:105830002285B250225492540259F249624A45617B
:10584000828083C7719AFD1793F7F70F0547637836
:10585000F708894751C6011122CC26CA4AC84EC64C
:1058600052C406CEAA89368AB2842E89EF60006DB2
:105870002A84D14729C9485509C597F0FF1FE780F9
:105880002012F1452685EFE02F9948D4CD4705CD6C
:105890008346C40021478147639FE600630D0A00E9
:1058A0000347A5010356050193062501AA854E85E8
:1058B000EF706004AA8703474400630F0900136771
:1058C00067002302E400F2406244D2444249B249F4
:1058D000224A3E850561828013674700DDB7C947CC
:1058E0003E858280E54763EBA700972700209387DA
:1058F000E7EB06053E9503550500828041657D1561
:105900008280011122CC2A842E8526CA06CEAE843E
:10591000EF60C0620DCDB7470F009387F7230945AD
:1059200063E2870281450A854146EFE08F8CA685B8
:10593000231081000A85418023018100A301010019
:10594000EF80F058F2406244D244056182804945BC
:10595000D5BFA382A19A82806F80D06D797152CC1D
:105960002A8A328522D426D24AD04ECE56CA5AC866
:105970005EC606D662C4AE8BB28A368BBA843E89C6
:10598000C2894684EF60805B15C92A8C63140A02C1
:1059900013774B008347450015CF93E72701230278
:1059A000FC008DEC631C0902639A090205E8ED9B7B
:1059B0002302FC00832B8C03639F0B06B2502254FE
:1059C00092540259F249624AD24A424BB24B224C9B
:1059D00045618280F59B93E70701D1B793E74700C4
:1059E0002302FC0001CC1C484146A2852324FC0272
:1059F00013058C0197E0FF1FE780405963910B026C
:105A0000D5D80325CC0209C597F0FF1FE78040F9E0
:105A1000F1452685EFE04F802326AC0261BFE30B02
:105A200009F80325CC0209C597F0FF1FE78040F76E
:105A3000F1454A85C5B79DC483A70B0299EB9165D3
:105A400093853571714597F0FF1FE780C0EB23A068
:105A5000AB0203A50B0219C57146A68597E0FF1F8F
:105A6000E780C0526388090283A74B0299EB9165D6
:105A700093852571594597F0FF1FE780C0E823A261
:105A8000AB0203A54B0219C55946CE8597E0FF1F0F
:105A9000E780C04F1DC483A78B0299EB9165938566
:105AA0001571514597F0FF1FE780E0E523A4AB0295
:105AB00003A58B0219C55146A28597E0FF1FE78019
:105AC000E04C2254B2509254F249B24B224CCA8656
:105AD0005A860259424BD6855285D24A624A45615E
